{
  "contractName": "ForexTrade",
  "abi": [
    {
      "constant": true,
      "inputs": [],
      "name": "rate",
      "outputs": [
        {
          "name": "",
          "type": "int256"
        }
      ],
      "payable": false,
      "stateMutability": "view",
      "type": "function"
    },
    {
      "inputs": [
        {
          "name": "_link",
          "type": "address"
        },
        {
          "name": "_oracle",
          "type": "address"
        },
        {
          "name": "_currencyA",
          "type": "string"
        },
        {
          "name": "_currencyB",
          "type": "string"
        },
        {
          "name": "_jobId",
          "type": "bytes32"
        },
        {
          "name": "_factoryAddress",
          "type": "address"
        }
      ],
      "payable": false,
      "stateMutability": "nonpayable",
      "type": "constructor"
    },
    {
      "anonymous": false,
      "inputs": [
        {
          "indexed": true,
          "name": "initiator",
          "type": "address"
        }
      ],
      "name": "TradeInitiated",
      "type": "event"
    },
    {
      "anonymous": false,
      "inputs": [
        {
          "indexed": true,
          "name": "acceptor",
          "type": "address"
        }
      ],
      "name": "TradeAccepted",
      "type": "event"
    },
    {
      "anonymous": false,
      "inputs": [
        {
          "indexed": true,
          "name": "sender",
          "type": "address"
        },
        {
          "indexed": false,
          "name": "oldRate",
          "type": "int256"
        },
        {
          "indexed": false,
          "name": "newRate",
          "type": "int256"
        }
      ],
      "name": "TradeRepriced",
      "type": "event"
    },
    {
      "anonymous": false,
      "inputs": [
        {
          "indexed": true,
          "name": "liquidated",
          "type": "address"
        },
        {
          "indexed": false,
          "name": "timestamp",
          "type": "uint256"
        }
      ],
      "name": "TradeLiquidated",
      "type": "event"
    },
    {
      "anonymous": false,
      "inputs": [
        {
          "indexed": true,
          "name": "id",
          "type": "bytes32"
        }
      ],
      "name": "ChainlinkRequested",
      "type": "event"
    },
    {
      "anonymous": false,
      "inputs": [
        {
          "indexed": true,
          "name": "id",
          "type": "bytes32"
        }
      ],
      "name": "ChainlinkFulfilled",
      "type": "event"
    },
    {
      "anonymous": false,
      "inputs": [
        {
          "indexed": true,
          "name": "id",
          "type": "bytes32"
        }
      ],
      "name": "ChainlinkCancelled",
      "type": "event"
    },
    {
      "constant": true,
      "inputs": [],
      "name": "getChainlinkToken",
      "outputs": [
        {
          "name": "",
          "type": "address"
        }
      ],
      "payable": false,
      "stateMutability": "view",
      "type": "function"
    },
    {
      "constant": true,
      "inputs": [],
      "name": "getOracle",
      "outputs": [
        {
          "name": "",
          "type": "address"
        }
      ],
      "payable": false,
      "stateMutability": "view",
      "type": "function"
    },
    {
      "constant": false,
      "inputs": [],
      "name": "createRequest",
      "outputs": [
        {
          "name": "",
          "type": "bytes32"
        }
      ],
      "payable": false,
      "stateMutability": "nonpayable",
      "type": "function"
    },
    {
      "constant": false,
      "inputs": [
        {
          "name": "_oracle",
          "type": "address"
        },
        {
          "name": "_jobId",
          "type": "bytes32"
        },
        {
          "name": "_baseCurrency",
          "type": "string"
        },
        {
          "name": "_symbol",
          "type": "string"
        },
        {
          "name": "_times",
          "type": "int256"
        }
      ],
      "name": "createRequestTo",
      "outputs": [
        {
          "name": "requestId",
          "type": "bytes32"
        }
      ],
      "payable": false,
      "stateMutability": "nonpayable",
      "type": "function"
    },
    {
      "constant": false,
      "inputs": [
        {
          "name": "_requestId",
          "type": "bytes32"
        },
        {
          "name": "_rate",
          "type": "int256"
        }
      ],
      "name": "fulfill",
      "outputs": [],
      "payable": false,
      "stateMutability": "nonpayable",
      "type": "function"
    },
    {
      "constant": false,
      "inputs": [
        {
          "name": "_notional",
          "type": "uint256"
        },
        {
          "name": "_tradePeriodEnd",
          "type": "uint256"
        }
      ],
      "name": "initiateTrade",
      "outputs": [],
      "payable": true,
      "stateMutability": "payable",
      "type": "function"
    },
    {
      "constant": false,
      "inputs": [],
      "name": "acceptTrade",
      "outputs": [],
      "payable": true,
      "stateMutability": "payable",
      "type": "function"
    },
    {
      "constant": false,
      "inputs": [],
      "name": "updateRates",
      "outputs": [],
      "payable": false,
      "stateMutability": "nonpayable",
      "type": "function"
    },
    {
      "constant": true,
      "inputs": [],
      "name": "getNotional",
      "outputs": [
        {
          "name": "_notional",
          "type": "uint256"
        }
      ],
      "payable": false,
      "stateMutability": "view",
      "type": "function"
    },
    {
      "constant": true,
      "inputs": [],
      "name": "getTrade",
      "outputs": [
        {
          "name": "_notional",
          "type": "uint256"
        },
        {
          "name": "_currencyA",
          "type": "string"
        },
        {
          "name": "_currencyB",
          "type": "string"
        },
        {
          "name": "_counterparties",
          "type": "address[2]"
        },
        {
          "name": "_tradePeriodEnd",
          "type": "uint256"
        },
        {
          "name": "_rate",
          "type": "int256"
        },
        {
          "name": "_accountCollateral",
          "type": "uint256[2]"
        }
      ],
      "payable": false,
      "stateMutability": "view",
      "type": "function"
    },
    {
      "constant": true,
      "inputs": [],
      "name": "getLinkBalance",
      "outputs": [
        {
          "name": "_balance",
          "type": "uint256"
        }
      ],
      "payable": false,
      "stateMutability": "view",
      "type": "function"
    }
  ],
  "bytecode": "0x60806040526001600455600a600755734a3fbbb385b5efeb4bc84a25aaadcd644bd09721600860006101000a81548173ffffffffffffffffffffffffffffffffffffffff021916908373ffffffffffffffffffffffffffffffffffffffff160217905550612710600e556000600f60006101000a81548160ff0219169083151502179055503480156200009157600080fd5b50604051620024d4380380620024d483398101806040528101908080519060200190929190805190602001909291908051820192919060200180518201929190602001805190602001909291908051906020019092919050505060006200010787620001df640100000000026401000000009004565b620001218662000223640100000000026401000000009004565b84600960006002811015156200013357fe5b0190805190602001906200014992919062000267565b5083600960016002811015156200015c57fe5b0190805190602001906200017292919062000267565b5032600b60006002811015156200018557fe5b0160006101000a81548173ffffffffffffffffffffffffffffffffffffffff021916908373ffffffffffffffffffffffffffffffffffffffff16021790555082600d81600019169055508190505050505050505062000316565b80600260006101000a81548173ffffffffffffffffffffffffffffffffffffffff021916908373ffffffffffffffffffffffffffffffffffffffff16021790555050565b80600360006101000a81548173ffffffffffffffffffffffffffffffffffffffff021916908373ffffffffffffffffffffffffffffffffffffffff16021790555050565b828054600181600116156101000203166002900490600052602060002090601f016020900481019282601f10620002aa57805160ff1916838001178555620002db565b82800160010185558215620002db579182015b82811115620002da578251825591602001919060010190620002bd565b5b509050620002ea9190620002ee565b5090565b6200031391905b808211156200030f576000816000905550600101620002f5565b5090565b90565b6121ae80620003266000396000f3006080604052600436106100ba576000357c0100000000000000000000000000000000000000000000000000000000900463ffffffff168063165d35e1146100bf5780632c4e722e146101165780633c3821f41461014157806350c5f97514610158578063833b1fce1461018357806386bf92f7146101da578063995f789214610349578063bda71d041461044c578063c957907814610487578063c9f746a0146104ba578063e8aa31ab146104e4578063fa4cbc411461050f575b600080fd5b3480156100cb57600080fd5b506100d4610519565b604051808273ffffffffffffffffffffffffffffffffffffffff1673ffffffffffffffffffffffffffffffffffffffff16815260200191505060405180910390f35b34801561012257600080fd5b5061012b610528565b6040518082815260200191505060405180910390f35b34801561014d57600080fd5b5061015661052e565b005b34801561016457600080fd5b5061016d6105b3565b6040518082815260200191505060405180910390f35b34801561018f57600080fd5b506101986106b2565b604051808273ffffffffffffffffffffffffffffffffffffffff1673ffffffffffffffffffffffffffffffffffffffff16815260200191505060405180910390f35b3480156101e657600080fd5b506101ef6106c1565b60405180888152602001806020018060200187600260200280838360005b8381101561022857808201518184015260208101905061020d565b5050505090500186815260200185815260200184600260200280838360005b83811015610262578082015181840152602081019050610247565b50505050905001838103835289818151815260200191508051906020019080838360005b838110156102a1578082015181840152602081019050610286565b50505050905090810190601f1680156102ce5780820380516001836020036101000a031916815260200191505b50838103825288818151815260200191508051906020019080838360005b838110156103075780820151818401526020810190506102ec565b50505050905090810190601f1680156103345780820380516001836020036101000a031916815260200191505b50995050505050505050505060405180910390f35b34801561035557600080fd5b5061042e600480360381019080803573ffffffffffffffffffffffffffffffffffffffff1690602001909291908035600019169060200190929190803590602001908201803590602001908080601f0160208091040260200160405190810160405280939291908181526020018383808284378201915050505050509192919290803590602001908201803590602001908080601f01602080910402602001604051908101604052809392919081815260200183838082843782019150505050505091929192908035906020019092919050505061090b565b60405180826000191660001916815260200191505060405180910390f35b34801561045857600080fd5b50610485600480360381019080803560001916906020019092919080359060200190929190505050610a9f565b005b34801561049357600080fd5b5061049c610c62565b60405180826000191660001916815260200191505060405180910390f35b6104e26004803603810190808035906020019092919080359060200190929190505050610dd3565b005b3480156104f057600080fd5b506104f9610f8d565b6040518082815260200191505060405180910390f35b610517610f97565b005b6000610523611152565b905090565b60065481565b60006013541115156105a8576040517f08c379a00000000000000000000000000000000000000000000000000000000081526004018080602001828103825260128152602001807f54726164652079657420746f20626567696e000000000000000000000000000081525060200191505060405180910390fd5b6105b0610c62565b50565b6000600860009054906101000a900473ffffffffffffffffffffffffffffffffffffffff1673ffffffffffffffffffffffffffffffffffffffff166370a08231306040518263ffffffff167c0100000000000000000000000000000000000000000000000000000000028152600401808273ffffffffffffffffffffffffffffffffffffffff1673ffffffffffffffffffffffffffffffffffffffff168152602001915050602060405180830381600087803b15801561067257600080fd5b505af1158015610686573d6000803e3d6000fd5b505050506040513d602081101561069c57600080fd5b8101908080519060200190929190505050905090565b60006106bc61117c565b905090565b60006060806106ce61209c565b6000806106d96120be565b601254600960006002811015156106ec57fe5b01600960016002811015156106fd57fe5b01600b6014546006546010858054600181600116156101000203166002900480601f01602080910402602001604051908101604052809291908181526020018280546001816001161561010002031660029004801561079d5780601f106107725761010080835404028352916020019161079d565b820191906000526020600020905b81548152906001019060200180831161078057829003601f168201915b50505050509550848054600181600116156101000203166002900480601f0160208091040260200160405190810160405280929190818152602001828054600181600116156101000203166002900480156108395780601f1061080e57610100808354040283529160200191610839565b820191906000526020600020905b81548152906001019060200180831161081c57829003601f168201915b50505050509450836002806020026040519081016040528092919082600280156108ae576020028201915b8160009054906101000a900473ffffffffffffffffffffffffffffffffffffffff1673ffffffffffffffffffffffffffffffffffffffff1681526020019060010190808311610864575b50505050509350806002806020026040519081016040528092919082600280156108ed576020028201915b8154815260200190600101908083116108d9575b50505050509050965096509650965096509650965090919293949596565b60006109156120e0565b610943863063bda71d047c0100000000000000000000000000000000000000000000000000000000026111a6565b90506109966040805190810160405280600881526020017f636f7079506174680000000000000000000000000000000000000000000000008152506109866111d7565b836112899092919063ffffffff16565b6109e06040805190810160405280600481526020017f626173650000000000000000000000000000000000000000000000000000000081525086836112899092919063ffffffff16565b610a2a6040805190810160405280600781526020017f73796d626f6c730000000000000000000000000000000000000000000000000081525085836112899092919063ffffffff16565b610a746040805190810160405280600581526020017f74696d657300000000000000000000000000000000000000000000000000000081525084836112bc9092919063ffffffff16565b610a938782600a670de0b6b3a7640000811515610a8d57fe5b046112ef565b91505095945050505050565b8160056000826000191660001916815260200190815260200160002060009054906101000a900473ffffffffffffffffffffffffffffffffffffffff1673ffffffffffffffffffffffffffffffffffffffff163373ffffffffffffffffffffffffffffffffffffffff16141515610ba4576040517f08c379a00000000000000000000000000000000000000000000000000000000081526004018080602001828103825260288152602001807f536f75726365206d75737420626520746865206f7261636c65206f662074686581526020017f207265717565737400000000000000000000000000000000000000000000000081525060400191505060405180910390fd5b60056000826000191660001916815260200190815260200160002060006101000a81549073ffffffffffffffffffffffffffffffffffffffff021916905580600019167f7cc135e0cebb02c3480ae5d74d377283180a2601f8f644edf7987b009316c63a60405160405180910390a2600f60009054906101000a900460ff161515610c49576001600f60006101000a81548160ff021916908315150217905550610c56565b610c556006548361167b565b5b81600681905550505050565b6000610dce610c6f6106b2565b600d5460096000600281101515610c8257fe5b018054600181600116156101000203166002900480601f016020809104026020016040519081016040528092919081815260200182805460018160011615610100020316600290048015610d175780601f10610cec57610100808354040283529160200191610d17565b820191906000526020600020905b815481529060010190602001808311610cfa57829003601f168201915b505050505060096001600281101515610d2c57fe5b018054600181600116156101000203166002900480601f016020809104026020016040519081016040528092919081815260200182805460018160011615610100020316600290048015610dc15780601f10610d9657610100808354040283529160200191610dc1565b820191906000526020600020905b815481529060010190602001808311610da457829003601f168201915b5050505050600e5461090b565b905090565b6000601254141515610e4d576040517f08c379a00000000000000000000000000000000000000000000000000000000081526004018080602001828103825260168152602001807f5377617020616c726561647920696e697469617465640000000000000000000081525060200191505060405180910390fd5b60075482811515610e5a57fe5b043410151515610ed2576040517f08c379a00000000000000000000000000000000000000000000000000000000081526004018080602001828103825260178152602001807f496e73756666696369656e7420636f6c6c61746572616c00000000000000000081525060200191505060405180910390fd5b33600b6000600281101515610ee357fe5b0160006101000a81548173ffffffffffffffffffffffffffffffffffffffff021916908373ffffffffffffffffffffffffffffffffffffffff1602179055503460106000600281101515610f3357fe5b018190555081601281905550806014819055503373ffffffffffffffffffffffffffffffffffffffff167f46d9904db485b84e5c95c69a6077d6a5dbb80b6c973644ee28485a2a144d317260405160405180910390a25050565b6000601254905090565b6000601254111515611011576040517f08c379a00000000000000000000000000000000000000000000000000000000081526004018080602001828103825260168152602001807f53776170206e6f742079657420696e697469617465640000000000000000000081525060200191505060405180910390fd5b60075460125481151561102057fe5b043410151515611098576040517f08c379a00000000000000000000000000000000000000000000000000000000081526004018080602001828103825260178152602001807f496e73756666696369656e7420636f6c6c61746572616c00000000000000000081525060200191505060405180910390fd5b33600b60016002811015156110a957fe5b0160006101000a81548173ffffffffffffffffffffffffffffffffffffffff021916908373ffffffffffffffffffffffffffffffffffffffff16021790555034601060016002811015156110f957fe5b0181905550426013819055503373ffffffffffffffffffffffffffffffffffffffff167fca0e32acd07d090741375861718cf6f063c6daec3dac8d9fb175248e52ee7d7b60405160405180910390a261115061052e565b565b6000600260009054906101000a900473ffffffffffffffffffffffffffffffffffffffff16905090565b6000600360009054906101000a900473ffffffffffffffffffffffffffffffffffffffff16905090565b6111ae6120e0565b6111b66120e0565b6111cd85858584611838909392919063ffffffff16565b9150509392505050565b6060600960016002811015156111e957fe5b0160405160200180807f72617465732e0000000000000000000000000000000000000000000000000000815250600601828054600181600116156101000203166002900480156112705780601f1061124e576101008083540402835291820191611270565b820191906000526020600020905b81548152906001019060200180831161125c575b5050915050604051602081830303815290604052905090565b6112a08284608001516118f290919063ffffffff16565b6112b78184608001516118f290919063ffffffff16565b505050565b6112d38284608001516118f290919063ffffffff16565b6112ea81846080015161191790919063ffffffff16565b505050565b600030600454604051602001808373ffffffffffffffffffffffffffffffffffffffff1673ffffffffffffffffffffffffffffffffffffffff166c01000000000000000000000000028152601401828152602001925050506040516020818303038152906040526040518082805190602001908083835b60208310151561138b5780518252602082019150602081019050602083039250611366565b6001836020036101000a038019825116818451168082178552505050505050905001915050604051809103902090506004548360600181815250508360056000836000191660001916815260200190815260200160002060006101000a81548173ffffffffffffffffffffffffffffffffffffffff021916908373ffffffffffffffffffffffffffffffffffffffff16021790555080600019167fb5e6e01e79f91267dc17b4e6314d5d4d03593d2ceee0fbb452b750bd70ea5af960405160405180910390a2600260009054906101000a900473ffffffffffffffffffffffffffffffffffffffff1673ffffffffffffffffffffffffffffffffffffffff16634000aea0858461149a87611965565b6040518463ffffffff167c0100000000000000000000000000000000000000000000000000000000028152600401808473ffffffffffffffffffffffffffffffffffffffff1673ffffffffffffffffffffffffffffffffffffffff16815260200183815260200180602001828103825283818151815260200191508051906020019080838360005b8381101561153d578082015181840152602081019050611522565b50505050905090810190601f16801561156a5780820380516001836020036101000a031916815260200191505b50945050505050602060405180830381600087803b15801561158b57600080fd5b505af115801561159f573d6000803e3d6000fd5b505050506040513d60208110156115b557600080fd5b81019080805190602001909291905050501515611660576040517f08c379a00000000000000000000000000000000000000000000000000000000081526004018080602001828103825260238152602001807f756e61626c6520746f207472616e73666572416e6443616c6c20746f206f726181526020017f636c65000000000000000000000000000000000000000000000000000000000081525060400191505060405180910390fd5b60016004600082825401925050819055508090509392505050565b6000808284121561172c578383039150600e54826012540281151561169c57fe5b04905080601060006002811015156116b057fe5b015401601060006002811015156116c357fe5b018190555080601060016002811015156116d957fe5b015403601060016002811015156116ec57fe5b018190555060026007540260125481151561170357fe5b046010600160028110151561171457fe5b01541015611727576117266001611b90565b5b6117db565b8284141561173957611832565b8284039150600e54826012540281151561174f57fe5b049050806010600060028110151561176357fe5b0154036010600060028110151561177657fe5b0181905550806010600160028110151561178c57fe5b0154016010600160028110151561179f57fe5b01819055506002600754026012548115156117b657fe5b04601060006002811015156117c757fe5b015410156117da576117d96000611b90565b5b5b3373ffffffffffffffffffffffffffffffffffffffff167f9fdaccf4ce37d30b077a90a79012d42faee79639f7272c9d7d6f0b5947972c8b8585604051808381526020018281526020019250505060405180910390a25b50505050565b6118406120e0565b6118508560800151610100611cd2565b50838560000190600019169081600019168152505082856020019073ffffffffffffffffffffffffffffffffffffffff16908173ffffffffffffffffffffffffffffffffffffffff16815250508185604001907bffffffffffffffffffffffffffffffffffffffffffffffffffffffff191690817bffffffffffffffffffffffffffffffffffffffffffffffffffffffff191681525050849050949350505050565b6118ff8260038351611d2c565b6119128183611e8a90919063ffffffff16565b505050565b6000811215156119325761192d82600083611d2c565b611961565b611960826001837fffffffffffffffffffffffffffffffffffffffffffffffffffffffffffffffff03611d2c565b5b5050565b6060600360009054906101000a900473ffffffffffffffffffffffffffffffffffffffff1673ffffffffffffffffffffffffffffffffffffffff16634042994690507c01000000000000000000000000000000000000000000000000000000000260008084600001518560200151866040015187606001516001896080015160000151604051602401808973ffffffffffffffffffffffffffffffffffffffff1673ffffffffffffffffffffffffffffffffffffffff16815260200188815260200187600019166000191681526020018673ffffffffffffffffffffffffffffffffffffffff1673ffffffffffffffffffffffffffffffffffffffff168152602001857bffffffffffffffffffffffffffffffffffffffffffffffffffffffff19167bffffffffffffffffffffffffffffffffffffffffffffffffffffffff1916815260200184815260200183815260200180602001828103825283818151815260200191508051906020019080838360005b83811015611af3578082015181840152602081019050611ad8565b50505050905090810190601f168015611b205780820380516001836020036101000a031916815260200191505b509950505050505050505050604051602081830303815290604052907bffffffffffffffffffffffffffffffffffffffffffffffffffffffff19166020820180517bffffffffffffffffffffffffffffffffffffffffffffffffffffffff83818316178352505050509050919050565b60006001821415611bf45760106001600281101515611bab57fe5b01549050600060106001600281101515611bc157fe5b01819055508060106000600281101515611bd757fe5b01540160106000600281101515611bea57fe5b0181905550611c49565b60106000600281101515611c0457fe5b01549050600060106000600281101515611c1a57fe5b01819055508060106001600281101515611c3057fe5b01540160106001600281101515611c4357fe5b01819055505b42601481905550600b82600281101515611c5f57fe5b0160009054906101000a900473ffffffffffffffffffffffffffffffffffffffff1673ffffffffffffffffffffffffffffffffffffffff167f8cd8a6ee40f6b5419c6270f84b104c9bae0ec694b869040b1c539ab73ff8a214426040518082815260200191505060405180910390a25050565b611cda61214e565b6000602083811515611ce857fe5b06141515611d0557602082811515611cfc57fe5b06602003820191505b81836020018181525050604051808452600081528281016020016040525082905092915050565b601781111515611d5e57611d588160058460ff169060020a0260ff161784611eac90919063ffffffff16565b50611e85565b60ff81111515611da557611d88601860058460ff169060020a021784611eac90919063ffffffff16565b50611d9f81600185611ecc9092919063ffffffff16565b50611e84565b61ffff81111515611ded57611dd0601960058460ff169060020a021784611eac90919063ffffffff16565b50611de781600285611ecc9092919063ffffffff16565b50611e83565b63ffffffff81111515611e3757611e1a601a60058460ff169060020a021784611eac90919063ffffffff16565b50611e3181600485611ecc9092919063ffffffff16565b50611e82565b67ffffffffffffffff81111515611e8157611e68601b60058460ff169060020a021784611eac90919063ffffffff16565b50611e7f81600885611ecc9092919063ffffffff16565b505b5b5b5b5b505050565b611e9261214e565b611ea483846000015151848551611eee565b905092915050565b611eb461214e565b611ec48384600001515184611fab565b905092915050565b611ed461214e565b611ee5848560000151518585611ffb565b90509392505050565b611ef661214e565b600080600085518511151515611f0b57600080fd5b87602001518588011115611f3657611f35886002611f2f8b602001518b8a0161205c565b02612078565b5b875180518860208301019450808988011115611f525788870182525b60208801935050505b602085101515611f805781518352602083019250602082019150602085039450611f5b565b6001856020036101000a03905080198251168184511681811785525050879350505050949350505050565b611fb361214e565b836020015183101515611fd257611fd1846002866020015102612078565b5b8351805160208583010184815381861415611fee576001820183525b5050508390509392505050565b61200361214e565b6000856020015185840111156120235761202286600287860102612078565b5b6001836101000a039050855183868201018583198251161781528151858801111561204e5784870182525b505085915050949350505050565b60008183111561206e57829050612072565b8190505b92915050565b60608260000151905061208b8383611cd2565b506120968382611e8a565b50505050565b6040805190810160405280600290602082028038833980820191505090505090565b6040805190810160405280600290602082028038833980820191505090505090565b60c06040519081016040528060008019168152602001600073ffffffffffffffffffffffffffffffffffffffff16815260200160007bffffffffffffffffffffffffffffffffffffffffffffffffffffffff1916815260200160008152602001612148612168565b81525090565b604080519081016040528060608152602001600081525090565b6040805190810160405280606081526020016000815250905600a165627a7a72305820b2085fa79d198d6dc401087adf578c05de593a320082838de7e3207cc312873b0029",
  "source": "pragma solidity 0.4.24;\n\nimport \"chainlink/contracts/ChainlinkClient.sol\";\n\ninterface ForexTradeFactoryContract {\n    function registerCounterparty();\n}\n\ninterface ERC20 {\n  function balanceOf(address) returns(uint);\n}\n\n// add safemath\ncontract ForexTrade is ChainlinkClient {\n    // solium-disable-next-line zeppelin/no-arithmetic-operations\n    uint256 private constant ORACLE_PAYMENT = LINK / 10;\n    int256 public rate;\n\n    uint256 LEVERAGE = 10;\n\n    address LINK_TOKEN = 0x4a3FBbB385b5eFEB4BC84a25AaADcD644Bd09721;\n\n    /* Core */\n    string[2] currencies; // [\"USD\", \"EUR\"]\n    address[2] counterparties; // [\"0xAlice\", \"0xBob\"]\n    // Alice is betting on USD gaining value\n\n    bytes32 jobId;\n    int256 times = 10000; // multiply oracle result by 10,000: 1.345% = 13450;\n    bool ratesInitiated = false;\n\n    uint256[2] accountCollateral; // initial values >= notional / LEVERAGE\n\n    uint256 notional; // wei\n    uint256 tradePeriodStart; // timestamp\n    uint256 tradePeriodEnd; // timestamp\n\n    event TradeInitiated(address indexed initiator);\n    event TradeAccepted(address indexed acceptor);\n    event TradeRepriced(address indexed sender, int oldRate, int newRate);\n    event TradeLiquidated(address indexed liquidated, uint timestamp);\n\n    constructor(\n        address _link,\n        address _oracle,\n        string _currencyA,\n        string _currencyB,\n        bytes32 _jobId,\n        address _factoryAddress\n    ) public {\n        setChainlinkToken(_link);\n        setChainlinkOracle(_oracle);\n        currencies[0] = _currencyA;\n        currencies[1] = _currencyB;\n        counterparties[0] = tx.origin;\n        jobId = _jobId;\n\n        ForexTradeFactoryContract factoryContract = ForexTradeFactoryContract(\n            _factoryAddress\n        );\n    }\n\n    /* Chainlink functions */\n    function getChainlinkToken() public view returns (address) {\n        return chainlinkTokenAddress();\n    }\n\n    function getOracle() public view returns (address) {\n        return chainlinkOracleAddress();\n    }\n\n    function createRequest() public returns (bytes32) {\n        return\n            createRequestTo(\n                getOracle(),\n                jobId,\n                currencies[0],\n                currencies[1],\n                times\n            );\n    }\n\n    function createRequestTo(\n        address _oracle,\n        bytes32 _jobId,\n        string _baseCurrency, // USD\n        string _symbol, // EUR\n        int256 _times\n    ) public returns (bytes32 requestId) {\n        Chainlink.Request memory req = buildChainlinkRequest(\n            _jobId,\n            this,\n            this.fulfill.selector\n        );\n        req.add(\"copyPath\", getCopyPath());\n        req.add(\"base\", _baseCurrency);\n        req.add(\"symbols\", _symbol);\n        req.addInt(\"times\", _times);\n        requestId = sendChainlinkRequestTo(_oracle, req, ORACLE_PAYMENT);\n    }\n\n    function getCopyPath() internal view returns (string) {\n        return string(abi.encodePacked(\"rates.\", currencies[1]));\n    }\n\n    function fulfill(bytes32 _requestId, int256 _rate)\n        public\n        recordChainlinkFulfillment(_requestId)\n    {\n        if (!ratesInitiated) {\n            ratesInitiated = true;\n        } else {\n            // (oldRate, newRate)\n            runRepricing(rate, _rate);\n        }\n        rate = _rate;\n    }\n\n    function runRepricing(int256 oldRate, int256 newRate) private {\n        // EXAMPLE:\n        // currencies = [\"USD\", \"EUR\"]\n        // counterparties = [\"addr0\", \"addr1\"]\n        // notional = 1,000,000\n        // accountCollateral pre = [200000, 200000]\n        // oldRate: USD/EUR = 0.9000 * 10000 = 9000\n        // newRate: USD/EUR = 0.9200 * 10000 = 9200 (USD appreciated in this ex.)\n\n        uint256 changeInRate;\n        uint256 changeInValue;\n\n        if (oldRate < newRate) {\n            // currencies[0] is the currency that appreciated in this condition\n            changeInRate = uint256(newRate) - uint256(oldRate); // 9200 - 9000 = 200\n            changeInValue = (notional * changeInRate) / uint256(times); // 1000000 * 200 / 10000 = 20000\n            accountCollateral[0] = accountCollateral[0] + changeInValue;\n            accountCollateral[1] = accountCollateral[1] - changeInValue;\n            /* accountCollateral post TX = [220000, 180000] */\n\n            if(accountCollateral[1] < notional / (LEVERAGE * 2)){ // less than 5%\n              liquidate(1);\n            }\n        } else if (oldRate == newRate) {\n            return;\n        } else {\n            changeInRate = uint256(oldRate) - uint256(newRate);\n            changeInValue = (notional * changeInRate) / uint256(times);\n            accountCollateral[0] = accountCollateral[0] - changeInValue;\n            accountCollateral[1] = accountCollateral[1] + changeInValue;\n\n            if(accountCollateral[0] < notional / (LEVERAGE * 2)){\n              liquidate(0);\n            }\n        }\n\n        emit TradeRepriced(msg.sender, oldRate, newRate);\n    }\n\n    function liquidate(uint liquidatedAccount) private {\n        uint collateralValue;\n        if(liquidatedAccount == 1){\n          collateralValue = accountCollateral[1];\n          accountCollateral[1] = 0;\n          accountCollateral[0] = accountCollateral[0] + collateralValue;\n        } else {\n          collateralValue = accountCollateral[0];\n          accountCollateral[0] = 0;\n          accountCollateral[1] = accountCollateral[1] + collateralValue;\n        }\n\n        tradePeriodEnd = block.timestamp;\n        TradeLiquidated(counterparties[liquidatedAccount], block.timestamp);\n    }\n\n    function initiateTrade(uint256 _notional, uint256 _tradePeriodEnd)\n        public\n        payable\n        isNotInitiated\n    {\n        require(msg.value >= _notional / LEVERAGE, \"Insufficient collateral\");\n\n        counterparties[0] = msg.sender;\n        accountCollateral[0] = msg.value;\n        notional = _notional;\n\n        tradePeriodEnd = _tradePeriodEnd;\n        emit TradeInitiated(msg.sender);\n    }\n\n    modifier isNotInitiated() {\n        require(notional == 0, \"Swap already initiated\");\n        _;\n    }\n\n    modifier isInitiated() {\n        require(notional > 0, \"Swap not yet initiated\");\n        _;\n    }\n\n    // Contract must be funded with LINK for this function to run\n    function acceptTrade() public payable isInitiated {\n        require(msg.value >= notional / LEVERAGE, \"Insufficient collateral\");\n\n        counterparties[1] = msg.sender;\n        accountCollateral[1] = msg.value;\n\n        tradePeriodStart = block.timestamp;\n\n        emit TradeAccepted(msg.sender);\n        updateRates();\n    }\n\n    // Contract must be funded with LINK for this function to run\n    function updateRates() public {\n        require(tradePeriodStart > 0, \"Trade yet to begin\");\n        createRequest();\n    }\n\n    function getNotional() view returns (uint256 _notional) {\n        return notional;\n    }\n\n    function getTrade()\n        view\n        returns (\n            uint256 _notional,\n            string _currencyA,\n            string _currencyB,\n            address[2] _counterparties,\n            uint256 _tradePeriodEnd,\n            int256 _rate,\n            uint256[2] _accountCollateral\n        )\n    {\n        return (\n            notional,\n            currencies[0],\n            currencies[1],\n            counterparties,\n            tradePeriodEnd,\n            rate,\n            accountCollateral\n        );\n    }\n\n    function getLinkBalance() view returns (uint _balance){\n      return ERC20(LINK_TOKEN).balanceOf(address(this));\n    }\n}\n",
  "sourcePath": "/Users/michaeljcohen/Desktop/projects/forex-trader/contracts/ForexTrade.sol",
  "compiler": {
    "name": "solc",
    "version": "0.4.24+commit.e67f0147.Emscripten.clang"
  },
  "schemaVersion": "3.0.2",
  "updatedAt": "2019-12-09T17:01:35.384Z",
  "devdoc": {
    "methods": {}
  },
  "userdoc": {
    "methods": {}
  }
}